{
  "_format": "hh3-artifact-1",
  "contractName": "SafeDeal",
  "sourceName": "contracts/SafeDeal.sol",
  "abi": [
    {
      "inputs": [],
      "stateMutability": "nonpayable",
      "type": "constructor"
    },
    {
      "inputs": [
        {
          "internalType": "address",
          "name": "sender",
          "type": "address"
        },
        {
          "internalType": "uint256",
          "name": "tokenId",
          "type": "uint256"
        },
        {
          "internalType": "address",
          "name": "owner",
          "type": "address"
        }
      ],
      "name": "ERC721IncorrectOwner",
      "type": "error"
    },
    {
      "inputs": [
        {
          "internalType": "address",
          "name": "operator",
          "type": "address"
        },
        {
          "internalType": "uint256",
          "name": "tokenId",
          "type": "uint256"
        }
      ],
      "name": "ERC721InsufficientApproval",
      "type": "error"
    },
    {
      "inputs": [
        {
          "internalType": "address",
          "name": "approver",
          "type": "address"
        }
      ],
      "name": "ERC721InvalidApprover",
      "type": "error"
    },
    {
      "inputs": [
        {
          "internalType": "address",
          "name": "operator",
          "type": "address"
        }
      ],
      "name": "ERC721InvalidOperator",
      "type": "error"
    },
    {
      "inputs": [
        {
          "internalType": "address",
          "name": "owner",
          "type": "address"
        }
      ],
      "name": "ERC721InvalidOwner",
      "type": "error"
    },
    {
      "inputs": [
        {
          "internalType": "address",
          "name": "receiver",
          "type": "address"
        }
      ],
      "name": "ERC721InvalidReceiver",
      "type": "error"
    },
    {
      "inputs": [
        {
          "internalType": "address",
          "name": "sender",
          "type": "address"
        }
      ],
      "name": "ERC721InvalidSender",
      "type": "error"
    },
    {
      "inputs": [
        {
          "internalType": "uint256",
          "name": "tokenId",
          "type": "uint256"
        }
      ],
      "name": "ERC721NonexistentToken",
      "type": "error"
    },
    {
      "inputs": [
        {
          "internalType": "address",
          "name": "owner",
          "type": "address"
        }
      ],
      "name": "OwnableInvalidOwner",
      "type": "error"
    },
    {
      "inputs": [
        {
          "internalType": "address",
          "name": "account",
          "type": "address"
        }
      ],
      "name": "OwnableUnauthorizedAccount",
      "type": "error"
    },
    {
      "anonymous": false,
      "inputs": [
        {
          "indexed": true,
          "internalType": "address",
          "name": "owner",
          "type": "address"
        },
        {
          "indexed": true,
          "internalType": "address",
          "name": "approved",
          "type": "address"
        },
        {
          "indexed": true,
          "internalType": "uint256",
          "name": "tokenId",
          "type": "uint256"
        }
      ],
      "name": "Approval",
      "type": "event"
    },
    {
      "anonymous": false,
      "inputs": [
        {
          "indexed": true,
          "internalType": "address",
          "name": "owner",
          "type": "address"
        },
        {
          "indexed": true,
          "internalType": "address",
          "name": "operator",
          "type": "address"
        },
        {
          "indexed": false,
          "internalType": "bool",
          "name": "approved",
          "type": "bool"
        }
      ],
      "name": "ApprovalForAll",
      "type": "event"
    },
    {
      "anonymous": false,
      "inputs": [
        {
          "indexed": false,
          "internalType": "uint256",
          "name": "_fromTokenId",
          "type": "uint256"
        },
        {
          "indexed": false,
          "internalType": "uint256",
          "name": "_toTokenId",
          "type": "uint256"
        }
      ],
      "name": "BatchMetadataUpdate",
      "type": "event"
    },
    {
      "anonymous": false,
      "inputs": [
        {
          "indexed": true,
          "internalType": "uint256",
          "name": "tokenId",
          "type": "uint256"
        },
        {
          "indexed": false,
          "internalType": "address",
          "name": "buyer",
          "type": "address"
        }
      ],
      "name": "ItemBought",
      "type": "event"
    },
    {
      "anonymous": false,
      "inputs": [
        {
          "indexed": true,
          "internalType": "uint256",
          "name": "tokenId",
          "type": "uint256"
        },
        {
          "indexed": false,
          "internalType": "uint256",
          "name": "price",
          "type": "uint256"
        }
      ],
      "name": "ItemCreated",
      "type": "event"
    },
    {
      "anonymous": false,
      "inputs": [
        {
          "indexed": true,
          "internalType": "uint256",
          "name": "tokenId",
          "type": "uint256"
        },
        {
          "indexed": false,
          "internalType": "address",
          "name": "newOwner",
          "type": "address"
        }
      ],
      "name": "ItemReleased",
      "type": "event"
    },
    {
      "anonymous": false,
      "inputs": [
        {
          "indexed": false,
          "internalType": "uint256",
          "name": "_tokenId",
          "type": "uint256"
        }
      ],
      "name": "MetadataUpdate",
      "type": "event"
    },
    {
      "anonymous": false,
      "inputs": [
        {
          "indexed": true,
          "internalType": "address",
          "name": "previousOwner",
          "type": "address"
        },
        {
          "indexed": true,
          "internalType": "address",
          "name": "newOwner",
          "type": "address"
        }
      ],
      "name": "OwnershipTransferred",
      "type": "event"
    },
    {
      "anonymous": false,
      "inputs": [
        {
          "indexed": true,
          "internalType": "address",
          "name": "from",
          "type": "address"
        },
        {
          "indexed": true,
          "internalType": "address",
          "name": "to",
          "type": "address"
        },
        {
          "indexed": true,
          "internalType": "uint256",
          "name": "tokenId",
          "type": "uint256"
        }
      ],
      "name": "Transfer",
      "type": "event"
    },
    {
      "inputs": [],
      "name": "COOLDOWN_TIME",
      "outputs": [
        {
          "internalType": "uint256",
          "name": "",
          "type": "uint256"
        }
      ],
      "stateMutability": "view",
      "type": "function"
    },
    {
      "inputs": [],
      "name": "LOCK_TIME",
      "outputs": [
        {
          "internalType": "uint256",
          "name": "",
          "type": "uint256"
        }
      ],
      "stateMutability": "view",
      "type": "function"
    },
    {
      "inputs": [],
      "name": "MAX_PER_USER",
      "outputs": [
        {
          "internalType": "uint256",
          "name": "",
          "type": "uint256"
        }
      ],
      "stateMutability": "view",
      "type": "function"
    },
    {
      "inputs": [
        {
          "internalType": "address",
          "name": "to",
          "type": "address"
        },
        {
          "internalType": "uint256",
          "name": "tokenId",
          "type": "uint256"
        }
      ],
      "name": "approve",
      "outputs": [],
      "stateMutability": "nonpayable",
      "type": "function"
    },
    {
      "inputs": [
        {
          "internalType": "address",
          "name": "owner",
          "type": "address"
        }
      ],
      "name": "balanceOf",
      "outputs": [
        {
          "internalType": "uint256",
          "name": "",
          "type": "uint256"
        }
      ],
      "stateMutability": "view",
      "type": "function"
    },
    {
      "inputs": [
        {
          "internalType": "uint256",
          "name": "tokenId",
          "type": "uint256"
        }
      ],
      "name": "confirmReceipt",
      "outputs": [],
      "stateMutability": "nonpayable",
      "type": "function"
    },
    {
      "inputs": [
        {
          "internalType": "address",
          "name": "",
          "type": "address"
        }
      ],
      "name": "cooldowns",
      "outputs": [
        {
          "internalType": "uint256",
          "name": "",
          "type": "uint256"
        }
      ],
      "stateMutability": "view",
      "type": "function"
    },
    {
      "inputs": [
        {
          "internalType": "string",
          "name": "_name",
          "type": "string"
        },
        {
          "internalType": "string",
          "name": "_type",
          "type": "string"
        },
        {
          "internalType": "uint256",
          "name": "_price",
          "type": "uint256"
        },
        {
          "internalType": "string",
          "name": "_ipfsHash",
          "type": "string"
        }
      ],
      "name": "createItem",
      "outputs": [
        {
          "internalType": "uint256",
          "name": "",
          "type": "uint256"
        }
      ],
      "stateMutability": "nonpayable",
      "type": "function"
    },
    {
      "inputs": [
        {
          "internalType": "uint256",
          "name": "tokenId",
          "type": "uint256"
        }
      ],
      "name": "getApproved",
      "outputs": [
        {
          "internalType": "address",
          "name": "",
          "type": "address"
        }
      ],
      "stateMutability": "view",
      "type": "function"
    },
    {
      "inputs": [
        {
          "internalType": "address",
          "name": "owner",
          "type": "address"
        },
        {
          "internalType": "address",
          "name": "operator",
          "type": "address"
        }
      ],
      "name": "isApprovedForAll",
      "outputs": [
        {
          "internalType": "bool",
          "name": "",
          "type": "bool"
        }
      ],
      "stateMutability": "view",
      "type": "function"
    },
    {
      "inputs": [
        {
          "internalType": "uint256",
          "name": "",
          "type": "uint256"
        }
      ],
      "name": "items",
      "outputs": [
        {
          "internalType": "string",
          "name": "name",
          "type": "string"
        },
        {
          "internalType": "string",
          "name": "itemType",
          "type": "string"
        },
        {
          "internalType": "uint256",
          "name": "value",
          "type": "uint256"
        },
        {
          "internalType": "string",
          "name": "ipfsHash",
          "type": "string"
        },
        {
          "internalType": "uint256",
          "name": "createdAt",
          "type": "uint256"
        },
        {
          "internalType": "uint256",
          "name": "lastTransferAt",
          "type": "uint256"
        },
        {
          "internalType": "address payable",
          "name": "seller",
          "type": "address"
        },
        {
          "internalType": "address",
          "name": "buyer",
          "type": "address"
        },
        {
          "internalType": "enum SafeDeal.State",
          "name": "state",
          "type": "uint8"
        },
        {
          "internalType": "uint256",
          "name": "lockedUntil",
          "type": "uint256"
        }
      ],
      "stateMutability": "view",
      "type": "function"
    },
    {
      "inputs": [],
      "name": "name",
      "outputs": [
        {
          "internalType": "string",
          "name": "",
          "type": "string"
        }
      ],
      "stateMutability": "view",
      "type": "function"
    },
    {
      "inputs": [],
      "name": "owner",
      "outputs": [
        {
          "internalType": "address",
          "name": "",
          "type": "address"
        }
      ],
      "stateMutability": "view",
      "type": "function"
    },
    {
      "inputs": [
        {
          "internalType": "uint256",
          "name": "tokenId",
          "type": "uint256"
        }
      ],
      "name": "ownerOf",
      "outputs": [
        {
          "internalType": "address",
          "name": "",
          "type": "address"
        }
      ],
      "stateMutability": "view",
      "type": "function"
    },
    {
      "inputs": [
        {
          "internalType": "uint256",
          "name": "tokenId",
          "type": "uint256"
        }
      ],
      "name": "purchaseItem",
      "outputs": [],
      "stateMutability": "payable",
      "type": "function"
    },
    {
      "inputs": [],
      "name": "renounceOwnership",
      "outputs": [],
      "stateMutability": "nonpayable",
      "type": "function"
    },
    {
      "inputs": [
        {
          "internalType": "address",
          "name": "from",
          "type": "address"
        },
        {
          "internalType": "address",
          "name": "to",
          "type": "address"
        },
        {
          "internalType": "uint256",
          "name": "tokenId",
          "type": "uint256"
        }
      ],
      "name": "safeTransferFrom",
      "outputs": [],
      "stateMutability": "nonpayable",
      "type": "function"
    },
    {
      "inputs": [
        {
          "internalType": "address",
          "name": "from",
          "type": "address"
        },
        {
          "internalType": "address",
          "name": "to",
          "type": "address"
        },
        {
          "internalType": "uint256",
          "name": "tokenId",
          "type": "uint256"
        },
        {
          "internalType": "bytes",
          "name": "data",
          "type": "bytes"
        }
      ],
      "name": "safeTransferFrom",
      "outputs": [],
      "stateMutability": "nonpayable",
      "type": "function"
    },
    {
      "inputs": [
        {
          "internalType": "address",
          "name": "operator",
          "type": "address"
        },
        {
          "internalType": "bool",
          "name": "approved",
          "type": "bool"
        }
      ],
      "name": "setApprovalForAll",
      "outputs": [],
      "stateMutability": "nonpayable",
      "type": "function"
    },
    {
      "inputs": [
        {
          "internalType": "bytes4",
          "name": "interfaceId",
          "type": "bytes4"
        }
      ],
      "name": "supportsInterface",
      "outputs": [
        {
          "internalType": "bool",
          "name": "",
          "type": "bool"
        }
      ],
      "stateMutability": "view",
      "type": "function"
    },
    {
      "inputs": [],
      "name": "symbol",
      "outputs": [
        {
          "internalType": "string",
          "name": "",
          "type": "string"
        }
      ],
      "stateMutability": "view",
      "type": "function"
    },
    {
      "inputs": [
        {
          "internalType": "uint256",
          "name": "tokenId",
          "type": "uint256"
        }
      ],
      "name": "tokenURI",
      "outputs": [
        {
          "internalType": "string",
          "name": "",
          "type": "string"
        }
      ],
      "stateMutability": "view",
      "type": "function"
    },
    {
      "inputs": [
        {
          "internalType": "address",
          "name": "from",
          "type": "address"
        },
        {
          "internalType": "address",
          "name": "to",
          "type": "address"
        },
        {
          "internalType": "uint256",
          "name": "tokenId",
          "type": "uint256"
        }
      ],
      "name": "transferFrom",
      "outputs": [],
      "stateMutability": "nonpayable",
      "type": "function"
    },
    {
      "inputs": [
        {
          "internalType": "address",
          "name": "newOwner",
          "type": "address"
        }
      ],
      "name": "transferOwnership",
      "outputs": [],
      "stateMutability": "nonpayable",
      "type": "function"
    }
  ],
  "bytecode": "0x608060405234801561000f575f5ffd5b50336040518060400160405280600881526020017f536166654465616c0000000000000000000000000000000000000000000000008152506040518060400160405280600481526020017f5341464500000000000000000000000000000000000000000000000000000000815250815f908161008b9190610423565b50806001908161009b9190610423565b5050505f73ffffffffffffffffffffffffffffffffffffffff168173ffffffffffffffffffffffffffffffffffffffff160361010e575f6040517f1e4fbdf70000000000000000000000000000000000000000000000000000000081526004016101059190610531565b60405180910390fd5b61011d8161012360201b60201c565b5061054a565b5f60075f9054906101000a900473ffffffffffffffffffffffffffffffffffffffff1690508160075f6101000a81548173ffffffffffffffffffffffffffffffffffffffff021916908373ffffffffffffffffffffffffffffffffffffffff1602179055508173ffffffffffffffffffffffffffffffffffffffff168173ffffffffffffffffffffffffffffffffffffffff167f8be0079c531659141344cd1fd0a4f28419497f9722a3daafe3b4186f6b6457e060405160405180910390a35050565b5f81519050919050565b7f4e487b71000000000000000000000000000000000000000000000000000000005f52604160045260245ffd5b7f4e487b71000000000000000000000000000000000000000000000000000000005f52602260045260245ffd5b5f600282049050600182168061026157607f821691505b6020821081036102745761027361021d565b5b50919050565b5f819050815f5260205f209050919050565b5f6020601f8301049050919050565b5f82821b905092915050565b5f600883026102d67fffffffffffffffffffffffffffffffffffffffffffffffffffffffffffffffff8261029b565b6102e0868361029b565b95508019841693508086168417925050509392505050565b5f819050919050565b5f819050919050565b5f61032461031f61031a846102f8565b610301565b6102f8565b9050919050565b5f819050919050565b61033d8361030a565b6103516103498261032b565b8484546102a7565b825550505050565b5f5f905090565b610368610359565b610373818484610334565b505050565b5b818110156103965761038b5f82610360565b600181019050610379565b5050565b601f8211156103db576103ac8161027a565b6103b58461028c565b810160208510156103c4578190505b6103d86103d08561028c565b830182610378565b50505b505050565b5f82821c905092915050565b5f6103fb5f19846008026103e0565b1980831691505092915050565b5f61041383836103ec565b9150826002028217905092915050565b61042c826101e6565b67ffffffffffffffff811115610445576104446101f0565b5b61044f825461024a565b61045a82828561039a565b5f60209050601f83116001811461048b575f8415610479578287015190505b6104838582610408565b8655506104ea565b601f1984166104998661027a565b5f5b828110156104c05784890151825560018201915060208501945060208101905061049b565b868310156104dd57848901516104d9601f8916826103ec565b8355505b6001600288020188555050505b505050505050565b5f73ffffffffffffffffffffffffffffffffffffffff82169050919050565b5f61051b826104f2565b9050919050565b61052b81610511565b82525050565b5f6020820190506105445f830184610522565b92915050565b613aaa806105575f395ff3fe60806040526004361061014a575f3560e01c806383e4604f116100b5578063bfb231d21161006e578063bfb231d21461048e578063c7ba7548146104d3578063c87b56dd146104fd578063d38ea5bf14610539578063e985e9c514610555578063f2fde38b146105915761014a565b806383e4604f14610386578063843cba13146103c25780638da5cb5b146103ea57806395d89b4114610414578063a22cb4651461043e578063b88d4fde146104665761014a565b8063413d9c3a11610107578063413d9c3a1461027c57806342842e0e146102a65780636352211e146102ce57806370a082311461030a578063715018a6146103465780637d2632451461035c5761014a565b806301320fe21461014e57806301ffc9a71461018a57806306fdde03146101c6578063081812fc146101f0578063095ea7b31461022c57806323b872dd14610254575b5f5ffd5b348015610159575f5ffd5b50610174600480360381019061016f9190612a6c565b6105b9565b6040516101819190612aaf565b60405180910390f35b348015610195575f5ffd5b506101b060048036038101906101ab9190612b1d565b6105ce565b6040516101bd9190612b62565b60405180910390f35b3480156101d1575f5ffd5b506101da61062e565b6040516101e79190612beb565b60405180910390f35b3480156101fb575f5ffd5b5061021660048036038101906102119190612c35565b6106bd565b6040516102239190612c6f565b60405180910390f35b348015610237575f5ffd5b50610252600480360381019061024d9190612c88565b6106d8565b005b34801561025f575f5ffd5b5061027a60048036038101906102759190612cc6565b6106ee565b005b348015610287575f5ffd5b506102906107ed565b60405161029d9190612aaf565b60405180910390f35b3480156102b1575f5ffd5b506102cc60048036038101906102c79190612cc6565b6107f3565b005b3480156102d9575f5ffd5b506102f460048036038101906102ef9190612c35565b610812565b6040516103019190612c6f565b60405180910390f35b348015610315575f5ffd5b50610330600480360381019061032b9190612a6c565b610823565b60405161033d9190612aaf565b60405180910390f35b348015610351575f5ffd5b5061035a6108d9565b005b348015610367575f5ffd5b506103706108ec565b60405161037d9190612aaf565b60405180910390f35b348015610391575f5ffd5b506103ac60048036038101906103a79190612e42565b6108f2565b6040516103b99190612aaf565b60405180910390f35b3480156103cd575f5ffd5b506103e860048036038101906103e39190612c35565b610ca8565b005b3480156103f5575f5ffd5b506103fe611065565b60405161040b9190612c6f565b60405180910390f35b34801561041f575f5ffd5b5061042861108d565b6040516104359190612beb565b60405180910390f35b348015610449575f5ffd5b50610464600480360381019061045f9190612f24565b61111d565b005b348015610471575f5ffd5b5061048c60048036038101906104879190613000565b611133565b005b348015610499575f5ffd5b506104b460048036038101906104af9190612c35565b611158565b6040516104ca9a99989796959493929190613113565b60405180910390f35b3480156104de575f5ffd5b506104e7611385565b6040516104f49190612aaf565b60405180910390f35b348015610508575f5ffd5b50610523600480360381019061051e9190612c35565b61138a565b6040516105309190612beb565b60405180910390f35b610553600480360381019061054e9190612c35565b611495565b005b348015610560575f5ffd5b5061057b600480360381019061057691906131c2565b6116fa565b6040516105889190612b62565b60405180910390f35b34801561059c575f5ffd5b506105b760048036038101906105b29190612a6c565b611788565b005b6009602052805f5260405f205f915090505481565b5f634906490660e01b7bffffffffffffffffffffffffffffffffffffffffffffffffffffffff1916827bffffffffffffffffffffffffffffffffffffffffffffffffffffffff1916148061062757506106268261180c565b5b9050919050565b60605f805461063c9061322d565b80601f01602080910402602001604051908101604052809291908181526020018280546106689061322d565b80156106b35780601f1061068a576101008083540402835291602001916106b3565b820191905f5260205f20905b81548152906001019060200180831161069657829003601f168201915b5050505050905090565b5f6106c7826118ed565b506106d182611973565b9050919050565b6106ea82826106e56119ac565b6119b3565b5050565b5f73ffffffffffffffffffffffffffffffffffffffff168273ffffffffffffffffffffffffffffffffffffffff160361075e575f6040517f64a0ae920000000000000000000000000000000000000000000000000000000081526004016107559190612c6f565b60405180910390fd5b5f610771838361076c6119ac565b6119c5565b90508373ffffffffffffffffffffffffffffffffffffffff168173ffffffffffffffffffffffffffffffffffffffff16146107e7578382826040517f64283d7b0000000000000000000000000000000000000000000000000000000081526004016107de9392919061325d565b60405180910390fd5b50505050565b61025881565b61080d83838360405180602001604052805f815250611133565b505050565b5f61081c826118ed565b9050919050565b5f5f73ffffffffffffffffffffffffffffffffffffffff168273ffffffffffffffffffffffffffffffffffffffff1603610894575f6040517f89c62b6400000000000000000000000000000000000000000000000000000000815260040161088b9190612c6f565b60405180910390fd5b60035f8373ffffffffffffffffffffffffffffffffffffffff1673ffffffffffffffffffffffffffffffffffffffff1681526020019081526020015f20549050919050565b6108e1611bd0565b6108ea5f611c57565b565b61012c81565b5f60046108fe33610823565b1061093e576040517f08c379a0000000000000000000000000000000000000000000000000000000008152600401610935906132dc565b60405180910390fd5b61012c60095f3373ffffffffffffffffffffffffffffffffffffffff1673ffffffffffffffffffffffffffffffffffffffff1681526020019081526020015f20546109899190613327565b4210156109cb576040517f08c379a00000000000000000000000000000000000000000000000000000000081526004016109c2906133a4565b60405180910390fd5b5f600a5f8154809291906109de906133c2565b9190505590506040518061016001604052808781526020018681526020018581526020018481526020015f67ffffffffffffffff811115610a2257610a21612d1e565b5b604051908082528060200260200182016040528015610a505781602001602082028036833780820191505090505b5081526020014281526020014281526020013373ffffffffffffffffffffffffffffffffffffffff1681526020015f73ffffffffffffffffffffffffffffffffffffffff1681526020015f6002811115610aad57610aac6130a0565b5b81526020015f81525060085f8381526020019081526020015f205f820151815f019081610ada91906135a9565b506020820151816001019081610af091906135a9565b50604082015181600201556060820151816003019081610b1091906135a9565b506080820151816004019080519060200190610b2d92919061295f565b5060a0820151816005015560c0820151816006015560e0820151816007015f6101000a81548173ffffffffffffffffffffffffffffffffffffffff021916908373ffffffffffffffffffffffffffffffffffffffff160217905550610100820151816008015f6101000a81548173ffffffffffffffffffffffffffffffffffffffff021916908373ffffffffffffffffffffffffffffffffffffffff1602179055506101208201518160080160146101000a81548160ff02191690836002811115610bfb57610bfa6130a0565b5b021790555061014082015181600901559050504260095f3373ffffffffffffffffffffffffffffffffffffffff1673ffffffffffffffffffffffffffffffffffffffff1681526020019081526020015f2081905550610c5a3382611d1a565b610c648184611e0d565b807f591fb83da607b2c6982a1348c1689d04071f4851678881f0a7dd64331770cf5c85604051610c949190612aaf565b60405180910390a280915050949350505050565b5f60085f8381526020019081526020015f209050806008015f9054906101000a900473ffffffffffffffffffffffffffffffffffffffff1673ffffffffffffffffffffffffffffffffffffffff163373ffffffffffffffffffffffffffffffffffffffff1614610d4d576040517f08c379a0000000000000000000000000000000000000000000000000000000008152600401610d44906136c2565b60405180910390fd5b60016002811115610d6157610d606130a0565b5b8160080160149054906101000a900460ff166002811115610d8557610d846130a0565b5b14610dc5576040517f08c379a0000000000000000000000000000000000000000000000000000000008152600401610dbc9061372a565b60405180910390fd5b8060090154421015610e0c576040517f08c379a0000000000000000000000000000000000000000000000000000000008152600401610e0390613792565b60405180910390fd5b806007015f9054906101000a900473ffffffffffffffffffffffffffffffffffffffff1673ffffffffffffffffffffffffffffffffffffffff166108fc826002015490811502906040515f60405180830381858888f19350505050158015610e76573d5f5f3e3d5ffd5b50610ec8816007015f9054906101000a900473ffffffffffffffffffffffffffffffffffffffff16826008015f9054906101000a900473ffffffffffffffffffffffffffffffffffffffff1684611e67565b80600401816007015f9054906101000a900473ffffffffffffffffffffffffffffffffffffffff16908060018154018082558091505060019003905f5260205f20015f9091909190916101000a81548173ffffffffffffffffffffffffffffffffffffffff021916908373ffffffffffffffffffffffffffffffffffffffff160217905550428160060181905550806008015f9054906101000a900473ffffffffffffffffffffffffffffffffffffffff16816007015f6101000a81548173ffffffffffffffffffffffffffffffffffffffff021916908373ffffffffffffffffffffffffffffffffffffffff1602179055505f816008015f6101000a81548173ffffffffffffffffffffffffffffffffffffffff021916908373ffffffffffffffffffffffffffffffffffffffff1602179055505f8160080160146101000a81548160ff02191690836002811115611024576110236130a0565b5b0217905550817f864770fbb7b941a6786c903702a45aabd43b239f42d4e1edaf46c9735f97b108336040516110599190612c6f565b60405180910390a25050565b5f60075f9054906101000a900473ffffffffffffffffffffffffffffffffffffffff16905090565b60606001805461109c9061322d565b80601f01602080910402602001604051908101604052809291908181526020018280546110c89061322d565b80156111135780601f106110ea57610100808354040283529160200191611113565b820191905f5260205f20905b8154815290600101906020018083116110f657829003601f168201915b5050505050905090565b61112f6111286119ac565b8383611fcf565b5050565b61113e8484846106ee565b6111526111496119ac565b85858585612138565b50505050565b6008602052805f5260405f205f91509050805f0180546111779061322d565b80601f01602080910402602001604051908101604052809291908181526020018280546111a39061322d565b80156111ee5780601f106111c5576101008083540402835291602001916111ee565b820191905f5260205f20905b8154815290600101906020018083116111d157829003601f168201915b5050505050908060010180546112039061322d565b80601f016020809104026020016040519081016040528092919081815260200182805461122f9061322d565b801561127a5780601f106112515761010080835404028352916020019161127a565b820191905f5260205f20905b81548152906001019060200180831161125d57829003601f168201915b5050505050908060020154908060030180546112959061322d565b80601f01602080910402602001604051908101604052809291908181526020018280546112c19061322d565b801561130c5780601f106112e35761010080835404028352916020019161130c565b820191905f5260205f20905b8154815290600101906020018083116112ef57829003601f168201915b505050505090806005015490806006015490806007015f9054906101000a900473ffffffffffffffffffffffffffffffffffffffff1690806008015f9054906101000a900473ffffffffffffffffffffffffffffffffffffffff16908060080160149054906101000a900460ff1690806009015490508a565b600481565b6060611395826118ed565b505f60065f8481526020019081526020015f2080546113b39061322d565b80601f01602080910402602001604051908101604052809291908181526020018280546113df9061322d565b801561142a5780601f106114015761010080835404028352916020019161142a565b820191905f5260205f20905b81548152906001019060200180831161140d57829003601f168201915b505050505090505f61143a6122e4565b90505f81510361144e578192505050611490565b5f8251111561148257808260405160200161146a9291906137ea565b60405160208183030381529060405292505050611490565b61148b846122fa565b925050505b919050565b5f60085f8381526020019081526020015f2090505f60028111156114bc576114bb6130a0565b5b8160080160149054906101000a900460ff1660028111156114e0576114df6130a0565b5b14611520576040517f08c379a000000000000000000000000000000000000000000000000000000000815260040161151790613857565b60405180910390fd5b80600201543414611566576040517f08c379a000000000000000000000000000000000000000000000000000000000815260040161155d906138bf565b60405180910390fd5b806007015f9054906101000a900473ffffffffffffffffffffffffffffffffffffffff1673ffffffffffffffffffffffffffffffffffffffff163373ffffffffffffffffffffffffffffffffffffffff16036115f7576040517f08c379a00000000000000000000000000000000000000000000000000000000081526004016115ee90613927565b60405180910390fd5b33816008015f6101000a81548173ffffffffffffffffffffffffffffffffffffffff021916908373ffffffffffffffffffffffffffffffffffffffff16021790555060018160080160146101000a81548160ff02191690836002811115611661576116606130a0565b5b0217905550610258426116749190613327565b81600901819055504260095f3373ffffffffffffffffffffffffffffffffffffffff1673ffffffffffffffffffffffffffffffffffffffff1681526020019081526020015f2081905550817f0f9cbfaca7747e91d313d3856ce813b28768fb717ccf84591115f65aae74e491336040516116ee9190612c6f565b60405180910390a25050565b5f60055f8473ffffffffffffffffffffffffffffffffffffffff1673ffffffffffffffffffffffffffffffffffffffff1681526020019081526020015f205f8373ffffffffffffffffffffffffffffffffffffffff1673ffffffffffffffffffffffffffffffffffffffff1681526020019081526020015f205f9054906101000a900460ff16905092915050565b611790611bd0565b5f73ffffffffffffffffffffffffffffffffffffffff168173ffffffffffffffffffffffffffffffffffffffff1603611800575f6040517f1e4fbdf70000000000000000000000000000000000000000000000000000000081526004016117f79190612c6f565b60405180910390fd5b61180981611c57565b50565b5f7f80ac58cd000000000000000000000000000000000000000000000000000000007bffffffffffffffffffffffffffffffffffffffffffffffffffffffff1916827bffffffffffffffffffffffffffffffffffffffffffffffffffffffff191614806118d657507f5b5e139f000000000000000000000000000000000000000000000000000000007bffffffffffffffffffffffffffffffffffffffffffffffffffffffff1916827bffffffffffffffffffffffffffffffffffffffffffffffffffffffff1916145b806118e657506118e582612360565b5b9050919050565b5f5f6118f8836123c9565b90505f73ffffffffffffffffffffffffffffffffffffffff168173ffffffffffffffffffffffffffffffffffffffff160361196a57826040517f7e2732890000000000000000000000000000000000000000000000000000000081526004016119619190612aaf565b60405180910390fd5b80915050919050565b5f60045f8381526020019081526020015f205f9054906101000a900473ffffffffffffffffffffffffffffffffffffffff169050919050565b5f33905090565b6119c08383836001612402565b505050565b5f5f6119d0846123c9565b90505f73ffffffffffffffffffffffffffffffffffffffff168373ffffffffffffffffffffffffffffffffffffffff1614611a1157611a108184866125c1565b5b5f73ffffffffffffffffffffffffffffffffffffffff168173ffffffffffffffffffffffffffffffffffffffff1614611a9c57611a505f855f5f612402565b600160035f8373ffffffffffffffffffffffffffffffffffffffff1673ffffffffffffffffffffffffffffffffffffffff1681526020019081526020015f205f82825403925050819055505b5f73ffffffffffffffffffffffffffffffffffffffff168573ffffffffffffffffffffffffffffffffffffffff1614611b1b57600160035f8773ffffffffffffffffffffffffffffffffffffffff1673ffffffffffffffffffffffffffffffffffffffff1681526020019081526020015f205f82825401925050819055505b8460025f8681526020019081526020015f205f6101000a81548173ffffffffffffffffffffffffffffffffffffffff021916908373ffffffffffffffffffffffffffffffffffffffff160217905550838573ffffffffffffffffffffffffffffffffffffffff168273ffffffffffffffffffffffffffffffffffffffff167fddf252ad1be2c89b69c2b068fc378daa952ba7f163c4a11628f55a4df523b3ef60405160405180910390a4809150509392505050565b611bd86119ac565b73ffffffffffffffffffffffffffffffffffffffff16611bf6611065565b73ffffffffffffffffffffffffffffffffffffffff1614611c5557611c196119ac565b6040517f118cdaa7000000000000000000000000000000000000000000000000000000008152600401611c4c9190612c6f565b60405180910390fd5b565b5f60075f9054906101000a900473ffffffffffffffffffffffffffffffffffffffff1690508160075f6101000a81548173ffffffffffffffffffffffffffffffffffffffff021916908373ffffffffffffffffffffffffffffffffffffffff1602179055508173ffffffffffffffffffffffffffffffffffffffff168173ffffffffffffffffffffffffffffffffffffffff167f8be0079c531659141344cd1fd0a4f28419497f9722a3daafe3b4186f6b6457e060405160405180910390a35050565b5f73ffffffffffffffffffffffffffffffffffffffff168273ffffffffffffffffffffffffffffffffffffffff1603611d8a575f6040517f64a0ae92000000000000000000000000000000000000000000000000000000008152600401611d819190612c6f565b60405180910390fd5b5f611d9683835f6119c5565b90505f73ffffffffffffffffffffffffffffffffffffffff168173ffffffffffffffffffffffffffffffffffffffff1614611e08575f6040517f73c6ac6e000000000000000000000000000000000000000000000000000000008152600401611dff9190612c6f565b60405180910390fd5b505050565b8060065f8481526020019081526020015f209081611e2b91906135a9565b507ff8e1a15aba9398e019f0b49df1a4fde98ee17ae345cb5f6b5e2c27f5033e8ce782604051611e5b9190612aaf565b60405180910390a15050565b5f73ffffffffffffffffffffffffffffffffffffffff168273ffffffffffffffffffffffffffffffffffffffff1603611ed7575f6040517f64a0ae92000000000000000000000000000000000000000000000000000000008152600401611ece9190612c6f565b60405180910390fd5b5f611ee383835f6119c5565b90505f73ffffffffffffffffffffffffffffffffffffffff168173ffffffffffffffffffffffffffffffffffffffff1603611f5557816040517f7e273289000000000000000000000000000000000000000000000000000000008152600401611f4c9190612aaf565b60405180910390fd5b8373ffffffffffffffffffffffffffffffffffffffff168173ffffffffffffffffffffffffffffffffffffffff1614611fc9578382826040517f64283d7b000000000000000000000000000000000000000000000000000000008152600401611fc09392919061325d565b60405180910390fd5b50505050565b5f73ffffffffffffffffffffffffffffffffffffffff168273ffffffffffffffffffffffffffffffffffffffff160361203f57816040517f5b08ba180000000000000000000000000000000000000000000000000000000081526004016120369190612c6f565b60405180910390fd5b8060055f8573ffffffffffffffffffffffffffffffffffffffff1673ffffffffffffffffffffffffffffffffffffffff1681526020019081526020015f205f8473ffffffffffffffffffffffffffffffffffffffff1673ffffffffffffffffffffffffffffffffffffffff1681526020019081526020015f205f6101000a81548160ff0219169083151502179055508173ffffffffffffffffffffffffffffffffffffffff168373ffffffffffffffffffffffffffffffffffffffff167f17307eab39ab6107e8899845ad3d59bd9653f200f220920489ca2b5937696c318360405161212b9190612b62565b60405180910390a3505050565b5f8373ffffffffffffffffffffffffffffffffffffffff163b11156122dd578273ffffffffffffffffffffffffffffffffffffffff1663150b7a02868685856040518563ffffffff1660e01b81526004016121969493929190613997565b6020604051808303815f875af19250505080156121d157506040513d601f19601f820116820180604052508101906121ce91906139f5565b60015b612252573d805f81146121ff576040519150601f19603f3d011682016040523d82523d5f602084013e612204565b606091505b505f81510361224a57836040517f64a0ae920000000000000000000000000000000000000000000000000000000081526004016122419190612c6f565b60405180910390fd5b805160208201fd5b63150b7a0260e01b7bffffffffffffffffffffffffffffffffffffffffffffffffffffffff1916817bffffffffffffffffffffffffffffffffffffffffffffffffffffffff1916146122db57836040517f64a0ae920000000000000000000000000000000000000000000000000000000081526004016122d29190612c6f565b60405180910390fd5b505b5050505050565b606060405180602001604052805f815250905090565b6060612305826118ed565b505f61230f6122e4565b90505f81511161232d5760405180602001604052805f815250612358565b8061233784612684565b6040516020016123489291906137ea565b6040516020818303038152906040525b915050919050565b5f7f01ffc9a7000000000000000000000000000000000000000000000000000000007bffffffffffffffffffffffffffffffffffffffffffffffffffffffff1916827bffffffffffffffffffffffffffffffffffffffffffffffffffffffff1916149050919050565b5f60025f8381526020019081526020015f205f9054906101000a900473ffffffffffffffffffffffffffffffffffffffff169050919050565b808061243a57505f73ffffffffffffffffffffffffffffffffffffffff168273ffffffffffffffffffffffffffffffffffffffff1614155b1561256c575f612449846118ed565b90505f73ffffffffffffffffffffffffffffffffffffffff168373ffffffffffffffffffffffffffffffffffffffff16141580156124b357508273ffffffffffffffffffffffffffffffffffffffff168173ffffffffffffffffffffffffffffffffffffffff1614155b80156124c657506124c481846116fa565b155b1561250857826040517fa9fbf51f0000000000000000000000000000000000000000000000000000000081526004016124ff9190612c6f565b60405180910390fd5b811561256a57838573ffffffffffffffffffffffffffffffffffffffff168273ffffffffffffffffffffffffffffffffffffffff167f8c5be1e5ebec7d5bd14f71427d1e84f3dd0314c0f7b2291e5b200ac8c7c3b92560405160405180910390a45b505b8360045f8581526020019081526020015f205f6101000a81548173ffffffffffffffffffffffffffffffffffffffff021916908373ffffffffffffffffffffffffffffffffffffffff16021790555050505050565b6125cc83838361274e565b61267f575f73ffffffffffffffffffffffffffffffffffffffff168373ffffffffffffffffffffffffffffffffffffffff160361264057806040517f7e2732890000000000000000000000000000000000000000000000000000000081526004016126379190612aaf565b60405180910390fd5b81816040517f177e802f000000000000000000000000000000000000000000000000000000008152600401612676929190613a20565b60405180910390fd5b505050565b60605f60016126928461280e565b0190505f8167ffffffffffffffff8111156126b0576126af612d1e565b5b6040519080825280601f01601f1916602001820160405280156126e25781602001600182028036833780820191505090505b5090505f82602083010190505b600115612743578080600190039150507f3031323334353637383961626364656600000000000000000000000000000000600a86061a8153600a858161273857612737613a47565b5b0494505f85036126ef575b819350505050919050565b5f5f73ffffffffffffffffffffffffffffffffffffffff168373ffffffffffffffffffffffffffffffffffffffff161415801561280557508273ffffffffffffffffffffffffffffffffffffffff168473ffffffffffffffffffffffffffffffffffffffff1614806127c657506127c584846116fa565b5b8061280457508273ffffffffffffffffffffffffffffffffffffffff166127ec83611973565b73ffffffffffffffffffffffffffffffffffffffff16145b5b90509392505050565b5f5f5f90507a184f03e93ff9f4daa797ed6e38ed64bf6a1f010000000000000000831061286a577a184f03e93ff9f4daa797ed6e38ed64bf6a1f01000000000000000083816128605761285f613a47565b5b0492506040810190505b6d04ee2d6d415b85acef810000000083106128a7576d04ee2d6d415b85acef8100000000838161289d5761289c613a47565b5b0492506020810190505b662386f26fc1000083106128d657662386f26fc1000083816128cc576128cb613a47565b5b0492506010810190505b6305f5e10083106128ff576305f5e10083816128f5576128f4613a47565b5b0492506008810190505b612710831061292457612710838161291a57612919613a47565b5b0492506004810190505b60648310612947576064838161293d5761293c613a47565b5b0492506002810190505b600a8310612956576001810190505b80915050919050565b828054828255905f5260205f209081019282156129d5579160200282015b828111156129d4578251825f6101000a81548173ffffffffffffffffffffffffffffffffffffffff021916908373ffffffffffffffffffffffffffffffffffffffff1602179055509160200191906001019061297d565b5b5090506129e291906129e6565b5090565b5b808211156129fd575f815f9055506001016129e7565b5090565b5f604051905090565b5f5ffd5b5f5ffd5b5f73ffffffffffffffffffffffffffffffffffffffff82169050919050565b5f612a3b82612a12565b9050919050565b612a4b81612a31565b8114612a55575f5ffd5b50565b5f81359050612a6681612a42565b92915050565b5f60208284031215612a8157612a80612a0a565b5b5f612a8e84828501612a58565b91505092915050565b5f819050919050565b612aa981612a97565b82525050565b5f602082019050612ac25f830184612aa0565b92915050565b5f7fffffffff0000000000000000000000000000000000000000000000000000000082169050919050565b612afc81612ac8565b8114612b06575f5ffd5b50565b5f81359050612b1781612af3565b92915050565b5f60208284031215612b3257612b31612a0a565b5b5f612b3f84828501612b09565b91505092915050565b5f8115159050919050565b612b5c81612b48565b82525050565b5f602082019050612b755f830184612b53565b92915050565b5f81519050919050565b5f82825260208201905092915050565b8281835e5f83830152505050565b5f601f19601f8301169050919050565b5f612bbd82612b7b565b612bc78185612b85565b9350612bd7818560208601612b95565b612be081612ba3565b840191505092915050565b5f6020820190508181035f830152612c038184612bb3565b905092915050565b612c1481612a97565b8114612c1e575f5ffd5b50565b5f81359050612c2f81612c0b565b92915050565b5f60208284031215612c4a57612c49612a0a565b5b5f612c5784828501612c21565b91505092915050565b612c6981612a31565b82525050565b5f602082019050612c825f830184612c60565b92915050565b5f5f60408385031215612c9e57612c9d612a0a565b5b5f612cab85828601612a58565b9250506020612cbc85828601612c21565b9150509250929050565b5f5f5f60608486031215612cdd57612cdc612a0a565b5b5f612cea86828701612a58565b9350506020612cfb86828701612a58565b9250506040612d0c86828701612c21565b9150509250925092565b5f5ffd5b5f5ffd5b7f4e487b71000000000000000000000000000000000000000000000000000000005f52604160045260245ffd5b612d5482612ba3565b810181811067ffffffffffffffff82111715612d7357612d72612d1e565b5b80604052505050565b5f612d85612a01565b9050612d918282612d4b565b919050565b5f67ffffffffffffffff821115612db057612daf612d1e565b5b612db982612ba3565b9050602081019050919050565b828183375f83830152505050565b5f612de6612de184612d96565b612d7c565b905082815260208101848484011115612e0257612e01612d1a565b5b612e0d848285612dc6565b509392505050565b5f82601f830112612e2957612e28612d16565b5b8135612e39848260208601612dd4565b91505092915050565b5f5f5f5f60808587031215612e5a57612e59612a0a565b5b5f85013567ffffffffffffffff811115612e7757612e76612a0e565b5b612e8387828801612e15565b945050602085013567ffffffffffffffff811115612ea457612ea3612a0e565b5b612eb087828801612e15565b9350506040612ec187828801612c21565b925050606085013567ffffffffffffffff811115612ee257612ee1612a0e565b5b612eee87828801612e15565b91505092959194509250565b612f0381612b48565b8114612f0d575f5ffd5b50565b5f81359050612f1e81612efa565b92915050565b5f5f60408385031215612f3a57612f39612a0a565b5b5f612f4785828601612a58565b9250506020612f5885828601612f10565b9150509250929050565b5f67ffffffffffffffff821115612f7c57612f7b612d1e565b5b612f8582612ba3565b9050602081019050919050565b5f612fa4612f9f84612f62565b612d7c565b905082815260208101848484011115612fc057612fbf612d1a565b5b612fcb848285612dc6565b509392505050565b5f82601f830112612fe757612fe6612d16565b5b8135612ff7848260208601612f92565b91505092915050565b5f5f5f5f6080858703121561301857613017612a0a565b5b5f61302587828801612a58565b945050602061303687828801612a58565b935050604061304787828801612c21565b925050606085013567ffffffffffffffff81111561306857613067612a0e565b5b61307487828801612fd3565b91505092959194509250565b5f61308a82612a12565b9050919050565b61309a81613080565b82525050565b7f4e487b71000000000000000000000000000000000000000000000000000000005f52602160045260245ffd5b600381106130de576130dd6130a0565b5b50565b5f8190506130ee826130cd565b919050565b5f6130fd826130e1565b9050919050565b61310d816130f3565b82525050565b5f610140820190508181035f83015261312c818d612bb3565b90508181036020830152613140818c612bb3565b905061314f604083018b612aa0565b8181036060830152613161818a612bb3565b90506131706080830189612aa0565b61317d60a0830188612aa0565b61318a60c0830187613091565b61319760e0830186612c60565b6131a5610100830185613104565b6131b3610120830184612aa0565b9b9a5050505050505050505050565b5f5f604083850312156131d8576131d7612a0a565b5b5f6131e585828601612a58565b92505060206131f685828601612a58565b9150509250929050565b7f4e487b71000000000000000000000000000000000000000000000000000000005f52602260045260245ffd5b5f600282049050600182168061324457607f821691505b60208210810361325757613256613200565b5b50919050565b5f6060820190506132705f830186612c60565b61327d6020830185612aa0565b61328a6040830184612c60565b949350505050565b7f4c696d6974652061747465696e746520284d61782034290000000000000000005f82015250565b5f6132c6601783612b85565b91506132d182613292565b602082019050919050565b5f6020820190508181035f8301526132f3816132ba565b9050919050565b7f4e487b71000000000000000000000000000000000000000000000000000000005f52601160045260245ffd5b5f61333182612a97565b915061333c83612a97565b9250828201905080821115613354576133536132fa565b5b92915050565b7f436f6f6c646f776e2061637469660000000000000000000000000000000000005f82015250565b5f61338e600e83612b85565b91506133998261335a565b602082019050919050565b5f6020820190508181035f8301526133bb81613382565b9050919050565b5f6133cc82612a97565b91507fffffffffffffffffffffffffffffffffffffffffffffffffffffffffffffffff82036133fe576133fd6132fa565b5b600182019050919050565b5f819050815f5260205f209050919050565b5f6020601f8301049050919050565b5f82821b905092915050565b5f600883026134657fffffffffffffffffffffffffffffffffffffffffffffffffffffffffffffffff8261342a565b61346f868361342a565b95508019841693508086168417925050509392505050565b5f819050919050565b5f6134aa6134a56134a084612a97565b613487565b612a97565b9050919050565b5f819050919050565b6134c383613490565b6134d76134cf826134b1565b848454613436565b825550505050565b5f5f905090565b6134ee6134df565b6134f98184846134ba565b505050565b5b8181101561351c576135115f826134e6565b6001810190506134ff565b5050565b601f8211156135615761353281613409565b61353b8461341b565b8101602085101561354a578190505b61355e6135568561341b565b8301826134fe565b50505b505050565b5f82821c905092915050565b5f6135815f1984600802613566565b1980831691505092915050565b5f6135998383613572565b9150826002028217905092915050565b6135b282612b7b565b67ffffffffffffffff8111156135cb576135ca612d1e565b5b6135d5825461322d565b6135e0828285613520565b5f60209050601f831160018114613611575f84156135ff578287015190505b613609858261358e565b865550613670565b601f19841661361f86613409565b5f5b8281101561364657848901518255600182019150602085019450602081019050613621565b86831015613663578489015161365f601f891682613572565b8355505b6001600288020188555050505b505050505050565b7f5365756c206c27616368657465757220706575742076616c69646572000000005f82015250565b5f6136ac601c83612b85565b91506136b782613678565b602082019050919050565b5f6020820190508181035f8301526136d9816136a0565b9050919050565b7f50617320656e20617474656e74650000000000000000000000000000000000005f82015250565b5f613714600e83612b85565b915061371f826136e0565b602082019050919050565b5f6020820190508181035f83015261374181613708565b9050919050565b7f5472616e73616374696f6e20766572726f75696c6c656520283130206d696e295f82015250565b5f61377c602083612b85565b915061378782613748565b602082019050919050565b5f6020820190508181035f8301526137a981613770565b9050919050565b5f81905092915050565b5f6137c482612b7b565b6137ce81856137b0565b93506137de818560208601612b95565b80840191505092915050565b5f6137f582856137ba565b915061380182846137ba565b91508190509392505050565b7f50617320646973706f6e69626c650000000000000000000000000000000000005f82015250565b5f613841600e83612b85565b915061384c8261380d565b602082019050919050565b5f6020820190508181035f83015261386e81613835565b9050919050565b7f4d6f6e74616e7420696e636f72726563740000000000000000000000000000005f82015250565b5f6138a9601183612b85565b91506138b482613875565b602082019050919050565b5f6020820190508181035f8301526138d68161389d565b9050919050565b7f56656e64657572206e65207065757420706173206163686574657200000000005f82015250565b5f613911601b83612b85565b915061391c826138dd565b602082019050919050565b5f6020820190508181035f83015261393e81613905565b9050919050565b5f81519050919050565b5f82825260208201905092915050565b5f61396982613945565b613973818561394f565b9350613983818560208601612b95565b61398c81612ba3565b840191505092915050565b5f6080820190506139aa5f830187612c60565b6139b76020830186612c60565b6139c46040830185612aa0565b81810360608301526139d6818461395f565b905095945050505050565b5f815190506139ef81612af3565b92915050565b5f60208284031215613a0a57613a09612a0a565b5b5f613a17848285016139e1565b91505092915050565b5f604082019050613a335f830185612c60565b613a406020830184612aa0565b9392505050565b7f4e487b71000000000000000000000000000000000000000000000000000000005f52601260045260245ffdfea2646970667358221220071ba6ea6ce958c5d145ec096be9c27064c1e4412c3542e4b4f8b83e53707c0e64736f6c634300081c0033",
  "linkReferences": {},
  "deployedLinkReferences": {},
  "immutableReferences": {},
  "inputSourceName": "project/contracts/SafeDeal.sol",
  "buildInfoId": "solc-0_8_28-caab5432e2cb5164f20487f402044a00993ed85d"
}